:020000040800F2
:100000008009002099010008A1010008A30100084F
:10001000A5010008A7010008A901000800000000D0
:10002000000000000000000000000000AB0100081C
:10003000AD01000800000000AF010008B101000898
:10004000B3010008B3010008B3010008C151000862
:10005000B3010008B3010008B3010008B3010008B0
:10006000B3010008B3010008B3010008B3010008A0
:10007000B3010008B3010008B3010008B301000890
:10008000B3010008B3010008B3010008B301000880
:10009000B3010008B3010008B3010008B301000870
:1000A000B3010008B3010008B3010008B301000860
:1000B000B3010008B3010008B3010008B301000850
:1000C000B3010008B3010008B3010008B301000840
:1000D000B3010008E155000869560008B3010008A3
:1000E000B3010008B3010008B301000800F002F8F2
:1000F00000F042F80AA090E8000C82448344AAF180
:100100000107DA4501D100F037F8AFF2090EBAE87D
:100110000F0013F0010F18BFFB1A43F0010318473B
:10012000A0780000C0780000103A24BF78C878C1D9
:10013000FAD8520724BF30C830C144BF04680C60ED
:10014000704700000023002400250026103A28BF35
:1001500078C1FBD8520728BF30C148BF0B60704739
:10016000642900F08380782900F0E3800020704744
:100170001FB51FBD10B510BD00F091FA1146FFF775
:10018000F7FF05F0D5FC00F0AFFA03B4FFF7F2FF7C
:1001900003BC05F0D7FB0000094880470948004729
:1001A000FEE7FEE7FEE7FEE7FEE7FEE7FEE7FEE727
:1001B000FEE7FEE704480549054A064B7047000084
:1001C00081550008ED000008800300208009002010
:1001D0008005002080050020704700000FB404490E
:1001E00010B503AA029800F01DFA10BC5DF814FBCC
:1001F000200000200FB41CB5074B06AA7B446946BB
:100200000090059800F0F5F90020694600F004FA26
:100210001CBC5DF814FB00001904000070B5044616
:1002200085690068C10601D5302600E02026C00798
:1002300007D070BDD4E9012130469047206A401CA8
:1002400020626D1EF6D570BD70B5044685690078D4
:10025000C00707D170BDD4E9012120209047206A52
:10026000401C20626D1EF6D570BD00002DE9F041E6
:100270000646002410687529314616A510D0AFF344
:100280000080002802DA404213A507E031688A079F
:1002900001D512A502E0490704D511A5012401E00A
:1002A000AFF3008000210A2206F1240709E0B0FB29
:1002B000F2FCB0FBF2F302FB1C003030785418461D
:1002C000491C0028F3D123462A463046BDE8F041B8
:1002D00000F030B9000000002D0000002B000000ED
:1002E00020000000F0B40D460188090502D51B4C22
:1002F0007C4402E0194C7C440E34002100F12403BC
:1003000005E002F00F061209A65D5E54491C002AA2
:10031000F7D102780023120704D5702D06D009B159
:10032000022311342246F0BC00F004B9012310343A
:10033000F8E770B504460D4621461068AFF300801B
:10034000024629462046BDE87040CBE703681268A4
:1003500043F0200303600823C361C3E71C76000059
:100360002DE9F05F894604464FF0000ADFF874B1CA
:10037000FB44C0F820A02046E1688847002874D0DC
:10038000252806D0D4E901219047206A401C20622C
:10039000F1E700265F462046E168884720280546A9
:1003A00007DB312D05D2781910F8200C08B106436F
:1003B000F1E7B00701D526F00406C4F81CA0002719
:1003C000C4F818A02A2D09D0284605F0B4FA38B38D
:1003D00004EB8708303DC8F8185019E059F8041BA1
:1003E000204604EB87029161E1688847012F0546AA
:1003F00018D1E069002820DA26F020061DE0D8F8A0
:10040000180000EB800005EB40003038C8F81800F9
:100410002046E1688847054605F08DFA0028EED1B0
:10042000012F0AD02E2D08D12046E16888477F1C75
:100430000546022F46F02006C4DBA069002803DA37
:10044000404246F00106A061F00701D026F01006F8
:100450006C2D0BD0682D09D04C2D39D06A2D35D09C
:10046000742D35D07A2D33D016E038E0E1682F4670
:1004700020468847B842054609D16C2F26D04FF454
:100480008060E168064320468847054604E06C2FFB
:100490001AD04FF4807006430DB3A5F1410019281E
:1004A00002D8203546F400664A4629462046266092
:1004B0004E46FFF755FE80B101280BD0F61D26F001
:1004C000070000F1080956E74020E4E78020D8E75C
:1004D0000020D6E706F104094DE7284652E7206AD6
:1004E000BDE8F09FC47500004FF000020429C0F081
:1004F000128010F0030C00F0A980CCF1040CBCF1C8
:10050000020F18BF00F8012BA8BF20F8022BA1EBA7
:100510000C0100F09BB85FEAC17C24BF00F8012BFE
:1005200000F8012B48BF00F8012B70477047704757
:10053000704770472DE9F0470D46994692460446AC
:1005400000F124080168880604D5E06921F0100153
:10055000216000E00120A84201DD471B00E00027E8
:10056000A1697A1902EB0900081AA0612078C00677
:1005700002D42046FFF752FE002608E0D4E901210C
:100580001AF806009047206A401C761C20624E45EF
:10059000F4DB2078C0060AD52046FFF73FFE06E0D0
:1005A000D4E9012130209047206A401C2062381E87
:1005B000A7F10107F4DC07E0D4E9012118F80500F0
:1005C0009047206A401C2062281EA5F10105F3DC3B
:1005D0002046FFF739FE2078000602D50220BDE84C
:1005E000F0870120FBE7000001694A1C02610878DE
:1005F000704700B58FB0CDE9013100210591054963
:100600007944CDE9031011466846FFF7A9FE0FB003
:1006100000BD0000E5FFFFFF0A6802F8010B0A6059
:1006200070470000074B70B50D467B44FFF7E1FFB4
:100630000446284600F02FF810B14FF0FF3070BD8F
:10064000204670BD9B5400004FF0000200B51346D9
:1006500094469646203922BFA0E80C50A0E80C50E2
:10066000B1F12001BFF4F7AF090728BFA0E80C5093
:1006700048BF0CC05DF804EB890028BF40F8042B8C
:1006800008BF704748BF20F8022B11F0804F18BFF9
:1006900000F8012B7047007B00F080007047754622
:1006A00000F02CF8AE4605006946534620F00700DE
:1006B000854618B020B5FFF77DFDBDE820404FF01E
:1006C00000064FF000074FF000084FF0000B21F03C
:1006D0000701AC46ACE8C009ACE8C009ACE8C00909
:1006E000ACE8C0098D46704710B50446AFF30080F2
:1006F0002046BDE81040FFF748BD000000487047A5
:100700001C03002010B5012004F0B0FB002004F011
:10071000ADFB10BD08B501460020009003480090D5
:100720000098084400900098008808BD006C0040C4
:1007300008B500220092044A0092009A02440092F6
:10074000009A116008BD0000006C004010B517A0B1
:10075000FFF744FD4FF4FA7005F06AF915A0FFF7B2
:100760003DFD4FF4FA7005F063F916A0FFF736FD72
:100770004FF4C86005F05CF91CA0FFF72FFD4FF4A3
:10078000FA7005F055F91DA0FFF728FD4FF4FA7037
:1007900005F04EF900201D4908801D48FFF71EFD99
:1007A0004FF4C86005F044F910BD00002B2B2B0D51
:1007B0000A00000041542B4349504D55583D300D1F
:1007C0000A00000041542B43495053544152543DB8
:1007D00022544350222C226170692E6B3738302E00
:1007E000636F6D222C38300D0A00000041542B43FA
:1007F00049504D4F44453D310D0A000041542B43B3
:10080000495053454E440D0A000000001A000020D4
:100810004C7900082DE9FC473E4890F840003038FC
:100820004FF47A7148433B4991F84110303901EB5C
:10083000C10202EB011100EB8101364890F8420041
:10084000303800EB800001EB4001324890F8430063
:1008500030380F182F4890F8460030382D4991F85D
:100860004510303901EB810100EB410000F0FF0839
:10087000284890F849003038264991F84810303916
:1008800001EB810100EB410000F0FF09214890F8E5
:100890004C0030381F4991F84B10303901EB810181
:1008A00000EB4100C5B21B4890F84F0030381949A1
:1008B00091F84E10303901EB810100EB4100C6B2D6
:1008C000144890F852003038124991F851103039DC
:1008D00001EB810100EB4100C4B2372C04DA172D83
:1008E00002D0601DC4B20AE0A4F13700C4B23B2EAE
:1008F00003D10026681CC5B201E0701CC6B2B8B2B4
:100900002B464A464146CDE9006404F013FDBDE89C
:10091000FC8700005400002051B18200A2F1C042C7
:10092000126842F001038200A2F1C042136009E0A4
:100930008200A2F1C0421268034B1A408300A3F167
:10094000C0431A6070470000FEFF0F00D0E901129B
:100950001143C2681143026911434269114382691C
:100960001143C2691143026A1143426A1143826A08
:100970001143C26A1143026B114302689200A2F153
:10098000C0421160816808290BD101688900A1F17A
:10099000C041096841F0400201688900A1F1C041ED
:1009A0000A60416B0968426B526841EA0211426B6E
:1009B000926841EA0221426B928941EA0241426B0C
:1009C000128A41EA0251426B127D41EA0261426B96
:1009D000926911430268521C9200A2F1C042116058
:1009E000C16AB1F5804F1BD1816B0968826B526877
:1009F00041EA0211826B926841EA0221826B128AFB
:100A000041EA0251826B127D41EA0261826B926976
:100A1000114302689200A2F1C042C2F8041107E03B
:100A20006FF0704201688900A1F1C041C1F8042152
:100A300070472DE9F04102460025002600200023E2
:100A40000024002791F803C00CF00F0591F803C0B3
:100A50000CF0100CBCF1000F03D091F802C04CEA6E
:100A6000050591F800C0BCF1000F31D014680020DA
:100A70002BE04FF0010C0CFA00F3B1F800C00CEAC7
:100A800003069E4220D183004FF00F0C0CFA03F7AF
:100A9000BC4305FA03FC4CEA040491F803C0BCF122
:100AA000280F06D14FF0010C0CFA00FCC2F814C05C
:100AB0000AE091F803C0BCF1480F05D14FF0010CDA
:100AC0000CFA00FCC2F810C0401C0828D1D31460F6
:100AD000B1F800C0BCF1FF0F34DD546800202EE0F7
:100AE00000F1080C4FF0010808FA0CF3B1F800C04F
:100AF0000CEA03069E4221D183004FF00F0C0CFA42
:100B000003F7BC4305FA03FC4CEA040491F803C064
:100B1000BCF1280F05D100F1080C08FA0CF8C2F856
:100B2000148091F803C0BCF1480F07D100F1080C04
:100B30004FF0010808FA0CF8C2F81080401C082891
:100B4000CED35460BDE8F0810246002093680B408C
:100B50000BB1012000E0002070470146CA1701EBED
:100B600092729210A1EB820292B9642091FBF0F292
:100B700000FB121050B94FF4C87091FBF0F200FB6B
:100B8000121008B9012070470020FCE70120FAE7A5
:100B90000020F8E770B5044600261748058840880D
:100BA00045431548808846F60401884216D112480C
:100BB0008079012812D100200F4988712A204881AC
:100BC0002B2088810021084603F028FF01200A49D4
:100BD00088712B2048812A20888103E00021084663
:100BE00003F01CFF04F0C2F8002602E00348048072
:100BF000761CAE42FAD370BD460000200008006C9F
:100C000010B50446002C66D16C498871F02008802C
:100C10004FF4A07048800846808849F241318842EC
:100C20000BD06648808846F60401884205D06348A8
:100C3000808845F2103188421AD12C205F49088102
:100C40002A2048812B2088810846808846F60401A6
:100C5000884205D05948808845F21031884206D133
:100C60004FF4A070554908804FF4F0704880A1E01F
:100C70005248808845F21051884210D14FF43050CC
:100C80004E4908814FF4285048814FF42C508881F8
:100C90004FF4F07008804FF4487048808AE047486D
:100CA000808841F6631188420DD12C204349088188
:100CB0002B2048812A2088814FF4F07008804FF45F
:100CC0004870488076E022203C49088120204881F5
:100CD000212088816EE00120384988714FF4A0708E
:100CE0000880F02048800846808849F241318842D7
:100CF00005D03248808845F21031884207D12C2037
:100D00002E4908812A2048812B2088813FE02B48EA
:100D1000808846F60401884207D12C2027490881A3
:100D20002B2048812A20888131E02448808845F2A0
:100D30001051884210D14FF43050204908814FF4AF
:100D4000285048814FF42C5088814FF44870088017
:100D50004FF4F07048801AE01848808841F663111B
:100D600088420DD12C20154908812A2048812B204A
:100D700088814FF4487008804FF4F070488006E096
:100D800022200E49088121204881202088810B489B
:100D9000808846F60401884205D00848808845F2DC
:100DA0001031884206D14FF4F070044908804FF4A6
:100DB000A0704880002003F0BBFC10BD460000205E
:100DC00030B503460C4615465A48808849F24131F1
:100DD000884205D05748808845F21031884214D1A6
:100DE0005449488903F0BCFF181203F0B3FFD8B28E
:100DF00003F0B0FF4F49888903F0B2FF201203F0DF
:100E0000A9FFE0B203F0A6FF8CE04A48808845F2D3
:100E10001051884220D14749488903F0A1FF181298
:100E200003F098FF43494989491C88B203F098FFB1
:100E3000D8B203F08FFF3F49888903F091FF201259
:100E400003F088FF3B498989491C88B203F088FF79
:100E5000E0B203F07FFF65E03648808841F6631119
:100E6000884228D13348807920B932480088401E12
:100E7000C01A83B22F49488903F072FF181203F099
:100E800069FFD8B203F066FF181203F063FFD8B20F
:100E900003F060FF2749888903F062FF201203F006
:100EA00059FFE0B203F056FF201203F053FFE0B207
:100EB00003F050FF36E01F48808846F60401884260
:100EC0001DD11C488079012804D11A480088401E91
:100ED000C01A83B21749488903F042FF181203F081
:100EE00039FFD8B203F036FF1249888903F038FF82
:100EF000201203F02FFFE0B203F02CFF12E00D48A8
:100F00008079012804D10B480088401EC01A83B2A2
:100F100008494889194603F033FF06498889214664
:100F200003F02EFF0348008903490880881C0580D0
:100F300030BD000046000020FE07006C00B59FB0E9
:100F40000121080203F062FF01214FF4B47003F0A5
:100F50007DFF0120ADF8780010208DF87B00032084
:100F60008DF87A001EA9FE48FFF763FD4CF233703E
:100F7000ADF8780018208DF87B0003208DF87A00FA
:100F80001EA9F848FFF755FD4FF68070ADF87800C0
:100F900018208DF87B0003208DF87A001EA9F248F6
:100FA000FFF747FD41F20100ADF8780018208DF8F9
:100FB0007B0003208DF87A001EA9EC48FFF739FD6D
:100FC00001200890002009900F200A9000200B902B
:100FD0000C900D900E900190029003200390002041
:100FE000049005900690079006200F900020109026
:100FF00011901020129000201390159014901690CC
:1010000017904FF480501890002019904FF48040B2
:101010001A9000201B9008A81C9001A81D900FA8F2
:10102000FFF794FC01210620FFF776FC322004F044
:10103000FFFC002003F046FBCD49888008468088ED
:10104000FF280ADB084680884FF6FF71884204D0EB
:10105000C7488088B0F5134F7ED1D32003F080FEBF
:1010600003F026FBC249888003F022FBC049888038
:1010700003F01EFBBE498880084680884FF6FF714A
:1010800001EA0020BA49888003F012FBB849898838
:101090000843B74988800846808849F24131884230
:1010A0005AD0BF2003F05CFE03F002FBB0498880F9
:1010B00003F0FEFAAE49888003F0FAFAAC49888062
:1010C00003F0F6FAAA498880084680884FF6FF7137
:1010D00001EA0020A649888003F0EAFAA449898839
:1010E0000843A34988800846808846F60401884260
:1010F0007AD0D42003F034FE03F0DAFA9C498880D9
:1011000003F0D6FA9A49888003F0D2FA9849888089
:10111000084680884FF6FF7101EA002094498880D4
:1011200003F0C6FA924989880843914988800846A5
:10113000808845F21031884256D04FF45A4003F06F
:101140000FFE03F0B5FA8A4988804FF45B4003F044
:1011500007FE03F0ADFA00E046E0854988800846C6
:1011600080884FF6FF7101EA0020814988804FF4A2
:101170005C4003F0F5FD03F09BFA7D498988084344
:101180007B49888008468088B0F5004F02D145F23F
:10119000105088807648808845F21051884223D0CC
:1011A000A12003F0DDFD03F083FA7149888003F08C
:1011B0007FFA6F498880084680884FF6FF7101EA00
:1011C00000206B49888003F073FA694989880843D5
:1011D000674988800846808845F26171884203D15A
:1011E00041F66310624988806148818861A0FEF7FA
:1011F000F5FF5F48808849F2413188427ED1CF2097
:1012000003F0AEFD002003F0A5FDC12003F0A2FD18
:10121000302003F09FFDED2003F0A2FD642003F0D9
:1012200099FD032003F096FD122003F093FD812029
:1012300003F090FDE82003F093FD852003F08AFD84
:10124000102003F087FD7A2003F084FDCB2003F00B
:1012500087FD392003F07EFD2C2003F07BFD00206C
:1012600003F078FD342003F075FD022003F072FDD9
:10127000F72003F075FD202003F06CFDEA2003F059
:101280006FFD002003F066FD002003F063FDC02029
:1012900003F066FD1B2003F05DFDC12003F060FD3F
:1012A000012003F057FDC52003F05AFD302003F064
:1012B00051FD302003F04EFDC72003F051FDB72053
:1012C00003F048FD362003F04BFD482003F042FDBB
:1012D0003A2003F045FD552003F03CFDB12003F01A
:1012E0003FFD002003F036FD1A2003F033FDB62049
:1012F00003F036FD0A2003F02DFD00E0AAE0A22055
:1013000003F028FDF22003F02BFD002003F022FD66
:10131000262003F025FD012003F01CFDE02003F052
:101320001FFD0F2003F016FD2A2003F013FD2820D7
:1013300003F010FD082003F00DFD0E2003F00AFD60
:10134000082003F007FD542003F004FDA92003F05A
:1013500001FD432003F0FEFC0A2003F0FBFC11E03A
:10136000000C014000140140001801400020014021
:1013700046000020204C43442049443A25780D0A79
:10138000000000000F2003F0E5FC002003F0E2FC69
:10139000002003F0DFFC002003F0DCFC002003F061
:1013A000D9FCE12003F0DCFC002003F0D3FC152085
:1013B00003F0D0FC172003F0CDFC072003F0CAFC9B
:1013C000112003F0C7FC062003F0C4FC2B2003F01F
:1013D000C1FC562003F0BEFC3C2003F0BBFC052002
:1013E00003F0B8FC102003F0B5FC0F2003F0B2FCB2
:1013F0003F2003F0AFFC3F2003F0ACFC0F2003F0D4
:10140000A9FC2B2003F0ACFC002003F0A3FC00207F
:1014100003F0A0FC012003F09DFC3F2003F09AFCA8
:101420002A2003F09DFC002003F094FC002003F030
:1014300091FC002003F08EFCEF2003F08BFC1120C8
:1014400003F08EFC782004F0F3FA292003F088FCE6
:1014500003F01DB9FE48808846F6040188427CD11D
:10146000112003F07DFC142004F0E2FAD02003F0F8
:1014700077FC072003F06EFC422003F06BFC1D207C
:1014800003F068FCD12003F06BFC002003F062FC49
:101490001A2003F05FFC092003F05CFCD22003F06B
:1014A0005FFC012003F056FC222003F053FCC02017
:1014B00003F056FC102003F04DFC3B2003F04AFCE7
:1014C000002003F047FC022003F044FC112003F04D
:1014D00041FCC52003F044FC032003F03BFCC82082
:1014E00003F03EFC002003F035FC252003F032FC25
:1014F000212003F02FFC052003F02CFC002003F03A
:1015000029FC0A2003F026FC652003F023FC25209B
:1015100003F020FC772003F01DFC502003F01AFCA0
:101520000F2003F017FC002003F014FCF82003F058
:1015300017FC012003F00EFCFE2003F011FC00203C
:1015400003F008FC022003F005FC202003F008FC57
:10155000362003F005FC082000E02CE003F0FAFB45
:101560003A2003F0FDFB552003F0F4FB2B2003F0A1
:10157000F7FB002003F0EEFB002003F0EBFB012063
:1015800003F0E8FB3F2003F0E5FB2A2003F0E8FB33
:10159000002003F0DFFB002003F0DCFB012003F060
:1015A000D9FBDF2003F0D6FB782004F041FA292094
:1015B00003F0D6FB4CE7A648808845F210318842FC
:1015C00040F07C87ED2003F0CBFB012003F0C2FB51
:1015D000FE2003F0BFFBEE2003F0C2FBDE2003F091
:1015E000B9FB212003F0B6FBF12003F0B9FB012089
:1015F00003F0B0FBDF2003F0B3FB102003F0AAFBE5
:10160000C42003F0ADFB8F2003F0A4FBC62003F041
:10161000A7FB002003F09EFBE22003F09BFBE220EF
:1016200003F098FBE22003F095FBBF2003F098FB4A
:10163000AA2003F08FFBB02003F092FB0D2003F0F3
:1016400089FB002003F086FB0D2003F083FB0020C4
:1016500003F080FB112003F07DFB002003F07AFBF8
:10166000192003F077FB002003F074FB212003F026
:1016700071FB002003F06EFB2D2003F06BFB0020BC
:1016800003F068FB3D2003F065FB002003F062FBE4
:101690005D2003F05FFB002003F05CFB5D2003F0A6
:1016A00059FB002003F056FBB12003F059FB8020CA
:1016B00003F050FB002003F04DFB8B2003F04AFBAE
:1016C000002003F047FB962003F044FB002003F0CA
:1016D00041FBB22003F044FB002003F03BFB002061
:1016E00003F038FB022003F035FB002003F032FB4F
:1016F000032003F02FFB002003F02CFBB32003F0AA
:101700002FFB002003F026FB002003F023FB00202A
:1017100003F020FB002003F01DFB002003F01AFB68
:10172000002003F017FB002003F014FB002003F05F
:1017300011FB002003F00EFB002003F00BFB002048
:1017400003F008FB002003F005FB002003F002FB80
:10175000002003F0FFFA002003F0FCFA002003F061
:10176000F9FA002003F0F6FA002003F0F3FA002063
:1017700003F0F0FA002003F0EDFA002003F0EAFA9B
:10178000002003F0E7FA002003F0E4FA002003F061
:10179000E1FAB42003F0E4FA8B2003F0DBFA002036
:1017A00003F0D8FA962003F0D5FA002003F0D2FA1D
:1017B000A12003F0CFFA002003F0CCFAB52003F00B
:1017C000CFFA022003F0C6FA002003F0C3FA032088
:1017D00003F0C0FA002003F0BDFA042003F0BAFAC7
:1017E000002003F0B7FAB62003F0BAFA002003F0A5
:1017F000B1FA002003F0AEFAB72003F0B1FA0020EE
:1018000003F0A8FA002003F0A5FA3F2003F0A2FAA3
:10181000002003F09FFA5E2003F09CFA002003F002
:1018200099FA642003F096FA002003F093FA8C20D2
:1018300003F090FA002003F08DFAAC2003F08AFA4E
:10184000002003F087FADC2003F084FA002001E096
:101850004600002003F07EFA702003F07BFA00209F
:1018600003F078FA902003F075FA002003F072FA82
:10187000EB2003F06FFA002003F06CFADC2003F099
:1018800069FA002003F066FAB82003F069FA002034
:1018900003F060FA002003F05DFA002003F05AFA2A
:1018A000002003F057FA002003F054FA002003F060
:1018B00051FA002003F04EFA002003F04BFABA2050
:1018C00003F04EFA242003F045FA002003F042FA18
:1018D000002003F03FFA002003F03CFAC12003F09F
:1018E0003FFA202003F036FA002003F033FA5420A8
:1018F00003F030FA002003F02DFAFF2003F02AFA5B
:10190000002003F027FAC22003F02AFA0A2003F08D
:1019100021FA002003F01EFA042003F01BFA002035
:1019200003F018FAC32003F01BFA3C2003F012FA6C
:10193000002003F00FFA3A2003F00CFA002003F025
:1019400009FA392003F006FA002003F003FA3720E1
:1019500003F000FA002003F0FDF93C2003F0FAF94F
:10196000002003F0F7F9362003F0F4F9002003F02B
:10197000F1F9322003F0EEF9002003F0EBF92F200B
:1019800003F0E8F9002003F0E5F92C2003F0E2F978
:10199000002003F0DFF9292003F0DCF9002003F038
:1019A000D9F9262003F0D6F9002003F0D3F924203A
:1019B00003F0D0F9002003F0CDF9242003F0CAF998
:1019C000002003F0C7F9232003F0C4F9002003F03E
:1019D000C1F93C2003F0BEF9002003F0BBF936202A
:1019E00003F0B8F9002003F0B5F9322003F0B2F9A2
:1019F000002003F0AFF92F2003F0ACF9002003F032
:101A0000A9F92C2003F0A6F9002003F0A3F929205E
:101A100003F0A0F9002003F09DF9262003F09AF9C5
:101A2000002003F097F9242003F094F9002003F03C
:101A300091F9242003F08EF9002003F08BF9232084
:101A400003F088F9002003F085F9C42003F088F939
:101A5000622003F07FF9002003F07CF9052003F0F9
:101A600079F9002003F076F9842003F073F900205F
:101A700003F070F9F02003F06DF9002003F06AF92B
:101A8000182003F067F9002003F064F9A42003F0A4
:101A900061F9002003F05EF9182003F05BF90020E3
:101AA00003F058F9502003F055F9002003F052F9E3
:101AB0000C2003F04FF9002003F04CF9172003F03D
:101AC00049F9002003F046F9952003F043F900207E
:101AD00003F040F9F32003F03DF9002003F03AF958
:101AE000E62003F037F9002003F034F9C52003F0B5
:101AF00037F9322003F02EF9002003F02BF94420AF
:101B000003F028F9002003F025F9652003F022F9FD
:101B1000002003F01FF9762003F01CF9002003F0E9
:101B200019F9882003F016F9002003F013F9C620F4
:101B300003F016F9202003F00DF9002003F00AF954
:101B4000172003F007F9002003F004F9012003F047
:101B500001F9002003F0FEF8C72003F001F900208E
:101B600003F0F8F8002003F0F5F8002003F0F2F895
:101B7000002003F0EFF8C82003F0F2F8002003F093
:101B8000E9F8002003F0E6F8002003F0E3F8002075
:101B900003F0E0F8C92003F0E3F8002003F0DAF8DE
:101BA000002003F0D7F8002003F0D4F8002003F061
:101BB000D1F8002003F0CEF8002003F0CBF800208D
:101BC00003F0C8F8002003F0C5F8002003F0C2F8C5
:101BD000002003F0BFF8002003F0BCF8002003F061
:101BE000B9F8002003F0B6F8002003F0B3F80020A5
:101BF00003F0B0F8002003F0ADF8E02003F0B0F8F7
:101C0000162003F0A7F8002003F0A4F81C2003F02E
:101C1000A1F8002003F09EF8212003F09BF800209B
:101C200003F098F8362003F095F8002003F092F8BE
:101C3000462003F08FF8002003F08CF8522003F0C8
:101C400089F8002003F086F8642003F083F8002070
:101C500003F080F87A2003F07DF8002003F07AF892
:101C60008B2003F077F8002003F074F8992003F03C
:101C700071F8002003F06EF8A82003F06BF8002044
:101C800003F068F8B92003F065F8002003F062F86B
:101C9000C42003F05FF8002003F05CF8CA2003F0D2
:101CA00059F8002003F056F8D22003F053F8002032
:101CB00003F050F8D92003F04DF8002003F04AF863
:101CC000E02003F047F8002003F044F8F32003F08D
:101CD00041F8002003F03EF8E12003F041F816201F
:101CE00003F038F8002003F035F81C2003F032F838
:101CF000002003F02FF8222003F02CF8002003F03E
:101D000029F8362003F026F8002003F023F84520B8
:101D100003F020F8002003F01DF8522003F01AF819
:101D2000002003F017F8642003F014F8002003F0FB
:101D300011F87A2003F00EF8002003F00BF88B2046
:101D400003F008F8002003F005F8992003F002F8EA
:101D5000002002F0FFFFA82002F0FCFF002002F0AC
:101D6000F9FFB92002F0F6FF002002F0F3FFC420D3
:101D700002F0F0FF002002F0EDFFCA2002F0EAFFBF
:101D8000002002F0E7FFD22002F0E4FF002002F082
:101D9000E1FFD82002F0DEFF002002F0DBFFE020B0
:101DA00002F0D8FF002002F0D5FFF32002F0D2FFAE
:101DB000002002F0CFFFE22002F0D2FF052002F067
:101DC000C9FF002002F0C6FF0B2002F0C3FF002075
:101DD00002F0C0FF1B2002F0BDFF002002F0BAFF9E
:101DE000342002F0B7FF002002F0B4FF442002F0DC
:101DF000B1FF002002F0AEFF4F2002F0ABFF002049
:101E000002F0A8FF612002F0A5FF002002F0A2FF6F
:101E1000792002F09FFF002002F09CFF882002F052
:101E200099FF002002F096FF972002F093FF002018
:101E300002F090FFA62002F08DFF002002F08AFF42
:101E4000B72002F087FF002002F084FFC22002F0DA
:101E500081FF002002F07EFFC72002F07BFF002000
:101E600002F078FFD12002F075FF002002F072FF2F
:101E7000D62002F06FFF002002F06CFFDD2002F0A0
:101E800069FF002002F066FFF32002F063FF0020EC
:101E900002F060FFE32002F063FF052002F05AFF2A
:101EA000002002F057FF0A2002F054FF002002F049
:101EB00051FF1C2002F04EFF002002F04BFF3320A8
:101EC00002F048FF002002F045FF442002F042FFEC
:101ED000002002F03FFF502002F03CFF002002F003
:101EE00039FF622002F036FF002002F033FF782035
:101EF00002F030FF002002F02DFF882002F02AFFC0
:101F0000002002F027FF972002F024FF002002F0BB
:101F100021FFA62002F01EFF002002F01BFFB720C9
:101F200002F018FF002002F015FFC22002F012FF9D
:101F3000002002F00FFFC72002F00CFF002002F08B
:101F400009FFD12002F006FF002002F003FFD52098
:101F500002F000FF002002F0FDFEDD2002F0FAFE9C
:101F6000002002F0F7FEF32002F0F4FE002002F061
:101F7000F1FEE42002F0F4FE012002F0EBFE00206E
:101F800002F0E8FE012002F0E5FE002002F0E2FE91
:101F9000022002F0DFFE002002F0DCFE2A2002F028
:101FA000D9FE002002F0D6FE3C2002F0D3FE002035
:101FB00002F0D0FE4B2002F0CDFE002002F0CAFE5F
:101FC0005D2002F0C7FE002002F0C4FE742002F083
:101FD000C1FE002002F0BEFE842002F0BBFE002005
:101FE00002F0B8FE932002F0B5FE002002F0B2FE2F
:101FF000A22002F0AFFE002002F0ACFEB32002F0FF
:10200000A9FE002002F0A6FEBE2002F0A3FE0020E2
:1020100002F0A0FEC42002F09DFE002002F09AFE15
:10202000CD2002F097FE002002F094FED32002F0B3
:1020300091FE002002F08EFEDD2002F08BFE0020DB
:1020400002F088FEF32002F085FE002002F082FEFE
:10205000E52002F085FE002002F07CFE002002F068
:1020600079FE002002F076FE002002F073FE0220CE
:1020700002F070FE002002F06DFE292002F06AFEE0
:10208000002002F067FE3C2002F064FE002002F017
:1020900061FE4B2002F05EFE002002F05BFE5D2040
:1020A00002F058FE002002F055FE742002F052FEAD
:1020B000002002F04FFE842002F04CFE002002F0CF
:1020C00049FE932002F046FE002002F043FEA220CB
:1020D00002F040FE002002F03DFEB32002F03AFE86
:1020E000002002F037FEBE2002F034FE002002F095
:1020F00031FEC42002F02EFE002002F02BFECD2087
:1021000002F028FE002002F025FED32002F022FE7D
:10211000002002F01FFEDC2002F01CFE002002F076
:1021200019FEF32002F016FE002002F013FEE62056
:1021300002F016FE112002F00DFE002002F00AFE51
:10214000342002F007FE002002F004FE562002F0C8
:1021500001FE002002F0FEFD762002F0FBFD0020D3
:1021600002F0F8FD772002F0F5FD002002F0F2FD0C
:10217000662002F0EFFD002002F0ECFD882002F066
:10218000E9FD002002F0E6FD992002F0E3FD0020C9
:1021900002F0E0FDBB2002F0DDFD002002F0DAFDE0
:1021A000992002F0D7FD002002F0D4FD662002F055
:1021B000D1FD002002F0CEFD552002F0CBFD002025
:1021C00002F0C8FD552002F0C5FD002002F0C2FD5E
:1021D000452002F0BFFD002002F0BCFD432002F0CC
:1021E000B9FD002002F0B6FD442002F0B3FD00204E
:1021F00002F0B0FDE72002F0B3FD322002F0AAFDAC
:10220000002002F0A7FD552002F0A4FD002002F0FE
:10221000A1FD762002F09EFD002002F09BFD6620CD
:1022200002F098FD002002F095FD672002F092FD7B
:10223000002002F08FFD672002F08CFD002002F0EC
:1022400089FD872002F086FD002002F083FD9920A1
:1022500002F080FD002002F07DFDBB2002F07AFD3F
:10226000002002F077FD992002F074FD002002F0BA
:1022700071FD772002F06EFD002002F06BFD44201E
:1022800002F068FD002002F065FD562002F062FDBC
:10229000002002F05FFD232002F05CFD002002F030
:1022A00059FD332002F056FD002002F053FD452079
:1022B00002F050FD002002F04DFDE82002F050FD3C
:1022C000002002F047FD002002F044FD992002F0BA
:1022D00041FD002002F03EFD872002F03BFD002082
:1022E00002F038FD882002F035FD002002F032FDBA
:1022F000772002F02FFD002002F02CFD662002F076
:1023000029FD002002F026FD882002F023FD002098
:1023100002F020FDAA2002F01DFD002002F01AFDAF
:10232000BB2002F017FD002002F014FD992002F0FE
:1023300011FD002002F00EFD662002F00BFD0020D2
:1023400002F008FD552002F005FD002002F002FD1C
:10235000552002F0FFFC002002F0FCFC442002F0BB
:10236000F9FC002002F0F6FC442002F0F3FC00200F
:1023700002F0F0FC552002F0EDFC002002F0EAFC37
:10238000E92002F0EDFCAA2002F0E4FC002002F0BB
:10239000E1FC002002F0DEFC002002F0DBFC00206B
:1023A00002F0DEFCAA2002F0D5FCCF2002F0D8FC1F
:1023B000002002F0CFFC002002F0CCFC002002F054
:1023C000C9FC002002F0C6FC002002F0C3FC002083
:1023D00002F0C0FC002002F0BDFC002002F0BAFCBC
:1023E000002002F0B7FC002002F0B4FC002002F054
:1023F000B1FC002002F0AEFC002002F0ABFC00209B
:1024000002F0A8FC002002F0A5FC002002F0A2FCD3
:10241000002002F09FFCF02002F0A2FC002002F05D
:1024200099FC502002F096FC002002F093FC002062
:1024300002F090FC002002F08DFCF32002F090FCF2
:10244000002002F087FCF92002F08AFC062002F04E
:1024500081FC102002F07EFC292002F07BFC002091
:1024600002F078FC3A2002F07BFC552002F072FC6E
:10247000112002F075FC642003F0DAFA292002F042
:102480006FFC352002F06CFC002002F063FC512050
:1024900002F066FCFF2002F05DFC532002F060FCBD
:1024A0002C2002F057FC552002F05AFC822002F04A
:1024B00051FC2C2002F054FC02F0E9B8FE48808860
:1024C00045F2105188427DD155214FF4704002F001
:1024D00057FCAA214FF2010002F052FC52214FF2A8
:1024E000020002F04DFC08214FF2030002F048FC0C
:1024F00001214FF2040002F043FC0D214FF4304063
:1025000002F03EFC0D214BF2010002F039FC0D21DE
:102510004BF2020002F034FC34214FF4364002F05A
:102520002FFC34214BF2016002F02AFC34214BF2E3
:10253000026002F025FC0D214FF4314002F020FC36
:102540000D214BF2011002F01BFC0D214BF2021089
:1025500002F016FC34214FF4374002F011FC342114
:102560004BF2017002F00CFC34214BF2027002F0CD
:1025700007FC00214FF4324002F002FC00214BF234
:10258000012002F0FDFB00214BF2022002F0F8FBDB
:1025900024214FF4384002F0F3FB24214BF60100D4
:1025A00002F0EEFB24214BF6020002F0E9FB0121D0
:1025B0004FF43F4002F0E4FB0F214FF4334002F0B0
:1025C000DFFB00E0FDE30F214BF2013002F0D8FB0E
:1025D0000F214BF2023002F0D3FB34214FF439408B
:1025E00002F0CEFB34214BF6011002F0C9FB34217E
:1025F0004BF6021002F0C4FB08214FF4354002F004
:10260000BFFB08214BF2015002F0BAFB08214BF24C
:10261000025002F0B5FB03214FF4424002F0B0FB40
:1026200024214FF43A4002F0ABFB24214BF6012069
:1026300002F0A6FB24214BF6022002F0A1FB0021B0
:102640004FF43C4002F09CFB78214BF6014002F035
:1026500097FB00214BF6024002F092FB00214FF461
:102660003D4002F08DFB78214BF6015002F088FBD3
:1026700000214BF6025002F083FB00214FF43E4054
:1026800002F07EFB64214BF6016002F079FB002131
:102690004FF4514002F074FB33214DF2011002F06F
:1026A0006FFB00214DF2021002F06AFB34214DF263
:1026B000031002F065FB00214DF2041002F060FBF4
:1026C0003A214DF2051002F05BFB00214DF206109D
:1026D00002F056FB4A214DF2071002F051FB002197
:1026E0004DF2081002F04CFB5C214DF2091002F093
:1026F00047FB00214DF20A1002F042FB81214DF20E
:102700000B1002F03DFB00214DF20C1002F038FBE3
:10271000A6214DF20D1002F033FB00214DF20E10F8
:1027200002F02EFBE5214DF20F1002F029FB0121F2
:102730004DF2101002F024FB13214DF2111002F0A3
:102740001FFB01214DF2121002F01AFB54214DF231
:10275000131002F015FB01214DF2141002F010FBD2
:1027600082214DF2151002F00BFB01214DF21610E3
:1027700002F006FBCA214DF2171002F001FB022104
:102780004DF2181002F0FCFA00214DF2191002F07F
:10279000F7FA02214DF21A1002F0F2FA01214DF27D
:1027A0001B1002F0EDFA02214DF21C1002F0E8FAC3
:1027B00034214DF21D1002F0E3FA02214DF21E10F9
:1027C00002F0DEFA67214DF21F1002F0D9FA022161
:1027D0004DF2201002F0D4FA84214DF2211002F0C3
:1027E000CFFA02214DF2221002F0CAFAA4214DF2D2
:1027F000231002F0C5FA02214DF2241002F0C0FAB3
:10280000B7214DF2251002F0BBFA02214DF226103D
:1028100002F0B6FACF214DF2271002F0B1FA0221F0
:102820004DF2281002F0ACFADE214DF2291002F030
:10283000A7FA02214DF22A1002F0A2FAF2214DF27B
:102840002B1002F09DFA02214DF22C1002F098FAA2
:10285000FE214DF22D1002F093FA03214DF22E10BD
:1028600002F08EFA10214DF22F1002F089FA0321A6
:102870004DF2301002F084FA33214DF2311002F0A3
:102880007FFA03214DF2321002F07AFA6D214DF2F7
:10289000331002F075FA00214FF4524002F070FA42
:1028A00033214DF2012002F06BFA00214DF202209B
:1028B00002F066FA342101E0460000204DF20320C8
:1028C00002F05EFA00214DF2042002F059FA3A219A
:1028D0004DF2052002F054FA00214DF2062002F0DC
:1028E0004FFA4A214DF2072002F04AFA00214DF238
:1028F000082002F045FA5C214DF2092002F040FA6E
:1029000000214DF20A2002F03BFA81214DF20B200A
:1029100002F036FA00214DF20C2002F031FAA62125
:102920004DF20D2002F02CFA00214DF20E2002F0A3
:1029300027FAE5214DF20F2002F022FA01214DF293
:10294000102002F01DFA13214DF2112002F018FAA6
:1029500001214DF2122002F013FA54214DF21320FE
:1029600002F00EFA01214DF2142002F009FA822140
:102970004DF2152002F004FA01214DF2162002F06A
:10298000FFF9CA214DF2172002F0FAF902214DF2A7
:10299000182002F0F5F900214DF2192002F0F0F9AB
:1029A00002214DF21A2002F0EBF901214DF21B2019
:1029B00002F0E6F902214DF21C2002F0E1F9342187
:1029C0004DF21D2002F0DCF902214DF21E2002F032
:1029D000D7F967214DF21F2002F0D2F902214DF202
:1029E000202002F0CDF984214DF2212002F0C8F917
:1029F00002214DF2222002F0C3F9A4214DF223203E
:102A000002F0BEF902214DF2242002F0B9F9B721FB
:102A10004DF2252002F0B4F902214DF2262002F0F9
:102A2000AFF9CF214DF2272002F0AAF902214DF291
:102A3000282002F0A5F9DE214DF2292002F0A0F9AC
:102A400002214DF22A2002F09BF9F2214DF22B20B7
:102A500002F096F902214DF22C2002F091F9FE21AC
:102A60004DF22D2002F08CF903214DF22E2002F0C0
:102A700087F910214DF22F2002F082F903214DF247
:102A8000302002F07DF933214DF2312002F078F947
:102A900003214DF2322002F073F96D214DF2332003
:102AA00002F06EF900214FF4534002F069F933212E
:102AB0004DF2013002F064F900214DF2023002F0D3
:102AC0005FF934214DF2033002F05AF900214DF242
:102AD000043002F055F93A214DF2053002F050F978
:102AE00000214DF2063002F04BF94A214DF2073039
:102AF00002F046F900214DF2083002F041F95C2164
:102B00004DF2093002F03CF900214DF20A3002F09A
:102B100037F981214DF20B3002F032F900214DF2EC
:102B20000C3002F02DF9A6214DF20D3002F028F9FB
:102B300000214DF20E3002F023F9E5214DF20F3065
:102B400002F01EF901214DF2103002F019F91321A3
:102B50004DF2113002F014F901214DF2123002F061
:102B60000FF954214DF2133002F00AF901214DF210
:102B7000143002F005F982214DF2153002F000F90F
:102B800001214DF2163002F0FBF8CA214DF2173048
:102B900002F0F6F802214DF2183002F0F1F80021AF
:102BA0004DF2193002F0ECF802214DF21A3002F029
:102BB000E7F801214DF21B3002F0E2F802214DF25C
:102BC0001C3002F0DDF834214DF21D3002F0D8F84F
:102BD00002214DF21E3002F0D3F867214DF21F3072
:102BE00002F0CEF802214DF2203002F0C9F8842123
:102BF0004DF2213002F0C4F802214DF2223002F0F1
:102C0000BFF8A4214DF2233002F0BAF802214DF2B0
:102C1000243002F0B5F8B7214DF2253002F0B0F8BB
:102C200002214DF2263002F0ABF8CF214DF22730D1
:102C300002F0A6F802214DF2283002F0A1F8DE21C0
:102C40004DF2293002F09CF802214DF22A3002F0B8
:102C500097F8F2214DF22B3002F092F802214DF25A
:102C60002C3002F08DF8FE214DF22D3002F088F864
:102C700003214DF22E3002F083F810214DF22F3057
:102C800002F07EF803214DF2303002F079F8332162
:102C90004DF2313002F074F803214DF2323002F07F
:102CA0006FF86D214DF2333002F06AF800214FF4D5
:102CB000544002F065F833214DF2014002F060F813
:102CC00000214DF2024002F05BF834214DF2034046
:102CD00002F056F800214DF2044002F051F83A217A
:102CE0004DF2054002F04CF800214DF2064002F092
:102CF00047F84A214DF2074002F042F800214DF218
:102D0000084002F03DF85C214DF2094002F038F82D
:102D100000214DF20A4002F033F881214DF20B40C0
:102D200002F02EF800214DF20C4002F029F8A62105
:102D30004DF20D4002F024F800214DF20E4002F059
:102D40001FF8E5214DF20F4002F01AF801214DF273
:102D5000104002F015F813214DF2114002F010F866
:102D600001214DF2124002F00BF854214DF21340B4
:102D700002F006F801214DF2144002F001F8822120
:102D80004DF2154001F0FCFF01214DF2164001F01B
:102D9000F7FFCA214DF2174001F0F2FF02214DF278
:102DA000184001F0EDFF00214DF2194001F0E8FF5D
:102DB00002214DF21A4001F0E3FF01214DF21B40C8
:102DC00000E006E301F0DCFF02214DF21C4001F0BF
:102DD000D7FF34214DF21D4001F0D2FF02214DF208
:102DE0001E4001F0CDFF67214DF21F4001F0C8FFEA
:102DF00002214DF2204001F0C3FF84214DF2214019
:102E000001F0BEFF02214DF2224001F0B9FFA421E2
:102E10004DF2234001F0B4FF02214DF2244001F0B5
:102E2000AFFFB7214DF2254001F0AAFF02214DF27C
:102E3000264001F0A5FFCF214DF2274001F0A0FF71
:102E400002214DF2284001F09BFFDE214DF2294086
:102E500001F096FF02214DF22A4001F091FFF2218C
:102E60004DF22B4001F08CFF02214DF22C4001F07D
:102E700087FFFE214DF22D4001F082FF03214DF22C
:102E80002E4001F07DFF10214DF22F4001F078FF20
:102E900003214DF2304001F073FF33214DF23140F8
:102EA00001F06EFF03214DF2324001F069FF6D2108
:102EB0004DF2334001F064FF00214FF4554001F022
:102EC0005FFF33214DF2015001F05AFF00214DF216
:102ED000025001F055FF34214DF2035001F050FF34
:102EE00000214DF2045001F04BFF3A214DF2055004
:102EF00001F046FF00214DF2065001F041FF4A214A
:102F00004DF2075001F03CFF00214DF2085001F056
:102F100037FF5C214DF2095001F032FF00214DF2E4
:102F20000A5001F02DFF81214DF20B5001F028FFD6
:102F300000214DF20C5001F023FFA6214DF20D505F
:102F400001F01EFF00214DF20E5001F019FFE521A6
:102F50004DF20F5001F014FF01214DF2105001F01D
:102F60000FFF13214DF2115001F00AFF01214DF224
:102F7000125001F005FF54214DF2135001F000FFF3
:102F800001214DF2145001F0FBFE82214DF215504B
:102F900001F0F6FE01214DF2165001F0F1FECA21BA
:102FA0004DF2175001F0ECFE02214DF2185001F0E5
:102FB000E7FE00214DF2195001F0E2FE02214DF230
:102FC0001A5001F0DDFE01214DF21B5001F0D8FE38
:102FD00002214DF21C5001F0D3FE34214DF21D5060
:102FE00001F0CEFE02214DF21E5001F0C9FE672114
:102FF0004DF21F5001F0C4FE02214DF2205001F0AD
:10300000BFFE84214DF2215001F0BAFE02214DF2A3
:10301000225001F0B5FEA4214DF2235001F0B0FE84
:1030200002214DF2245001F0ABFEB7214DF22550A4
:1030300001F0A6FE02214DF2265001F0A1FECF21A3
:103040004DF2275001F09CFE02214DF2285001F074
:1030500097FEDE214DF2295001F092FE02214DF241
:103060002A5001F08DFEF2214DF22B5001F088FE26
:1030700002214DF22C5001F083FEFE214DF22D5025
:1030800001F07EFE03214DF22E5001F079FE102159
:103090004DF22F5001F074FE03214DF2305001F03B
:1030A0006FFE33214DF2315001F06AFE03214DF2E3
:1030B000325001F065FE6D214DF2335001F060FE9B
:1030C00000214FF4564001F05BFE33214DF20160C8
:1030D00001F056FE00214DF2026001F051FE342154
:1030E0004DF2036001F04CFE00214DF2046001F04E
:1030F00047FE3A214DF2056001F042FE00214DF2FB
:10310000066001F03DFE4A214DF2076001F038FEF5
:1031100000214DF2086001F033FE5C214DF20960A0
:1031200001F02EFE00214DF20A6001F029FE8121FE
:103130004DF20B6001F024FE00214DF20C6001F015
:103140001FFEA6214DF20D6001F01AFE00214DF286
:103150000E6001F015FEE5214DF20F6001F010FE4A
:1031600001214DF2106001F00BFE13214DF21160B0
:1031700001F006FE01214DF2126001F001FE542122
:103180004DF2136001F0FCFD01214DF2146001F0DD
:10319000F7FD82214DF2156001F0F2FD01214DF2A3
:1031A000166001F0EDFDCA214DF2176001F0E8FD57
:1031B00002214DF2186001F0E3FD00214DF219608B
:1031C00001F0DEFD02214DF21A6001F0D9FD01216E
:1031D0004DF21B6001F0D4FD02214DF21C6001F0A4
:1031E000CFFD34214DF21D6001F0CAFD02214DF2E8
:1031F0001E6001F0C5FD67214DF21F6001F0C0FDAA
:1032000002214DF2206001F0BBFD84214DF22160CE
:1032100001F0B6FD02214DF2226001F0B1FDA421C2
:103220004DF2236001F0ACFD02214DF2246001F06B
:10323000A7FDB7214DF2256001F0A2FD02214DF25C
:10324000266001F09DFDCF214DF2276001F098FD31
:1032500002214DF2286001F093FDDE214DF229603C
:1032600001F08EFD02214DF22A6001F089FDF2216C
:103270004DF22B6001F084FD02214DF22C6001F033
:103280007FFDFE214DF22D6001F07AFD03214DF20C
:103290002E6001F075FD10214DF22F6001F070FDE0
:1032A00003214DF2306001F06BFD33214DF23160AE
:1032B00001F066FD03214DF2326001F061FD6D21E8
:1032C0004DF2336001F05CFD55214FF4704001F088
:1032D00057FDAA214FF2010001F052FD52214FF299
:1032E000020001F04DFD08214FF2030001F048FDFE
:1032F00000214FF2040001F043FDCC214FF4314096
:1033000001F03EFD00214BF2011001F039FD0521D5
:103310004FF4364001F034FD70214FF4374001F096
:103320002FFD70214BF2017001F02AFD01214FF4B5
:10333000384001F025FD03214BF6010001F020FD8E
:1033400003214BF6020001F01BFD03214BF60300A5
:1033500001F016FD02214FF43C4001F011FD002167
:103360004BF6014001F00CFD00214BF6024001F04C
:1033700007FDD0214FF4494001F002FD02214CF637
:10338000011001F0FDFC50214CF6021001F0F8FC98
:1033900050214CF6031001F0F3FC50214CF60410C0
:1033A00001F0EEFC00214FF4545001F0E9FC5521EE
:1033B0004FF4685001F0E4FC4FF4885001F0D0FC69
:1033C000782002F05BFB4FF4245001F0C9FC01F0BF
:1033D0005EB9FE48808849F2253188427ED147F6A1
:1033E000F001E52001F0CCFC4FF48071012001F0E8
:1033F000C7FC4FF4E061022001F0C2FC41F2300151
:10340000032001F0BDFC0021042001F0B9FC40F2D2
:103410000221082001F0B4FC0021092001F0B0FCD9
:1034200000210A2001F0ACFC00210C2001F0A8FCD6
:1034300000210D2001F0A4FC00210F2001F0A0FCD0
:103440000021102001F09CFC0721112001F098FCC4
:103450000021122001F094FC0021132001F090FCC7
:103460000021072001F08CFC41F29061102001F056
:1034700087FC40F22721112001F082FC9D211220BF
:1034800001F07EFC4FF4C851132001F079FC252196
:10349000292001F075FC0D212B2001F071FC072182
:1034A000302001F06DFC40F20331312001F068FC66
:1034B0000321322001F064FC40F20621352001F0A6
:1034C0005FFC0821362001F05BFC40F2064137200A
:1034D00001F056FC4FF44171382000E057E001F054
:1034E0004FFC0721392001F04BFC40F202613C20E7
:1034F00001F046FC08213D2001F042FC0021502053
:1035000001F03EFCEF21512001F03AFC0021522055
:1035100001F036FC40F23F11532001F031FC4FF432
:103520002741602001F02CFC0121612001F028FCE2
:1035300000216A2001F024FC0021802001F020FC01
:103540000021812001F01CFC0021822001F018FCE8
:103550000021832001F014FC0021842001F010FCE4
:103560000021852001F00CFC1021902001F008FCC6
:103570004FF4C061922001F003FC40F233110720A8
:1035800001F0FEFB2221002001F0FAFB1FE78F482B
:10359000808849F2283188427ED141F28F01EC20A7
:1035A00001F0EEFB41F23421EF2001F0E9FB4FF492
:1035B0008071012001F0E4FB4FF4E061022001F092
:1035C000DFFB41F23001032001F0DAFB002104208F
:1035D00001F0D6FB40F20221082001F0D1FB0021CE
:1035E000092001F0CDFB00210A2001F0C9FB0121D7
:1035F0000C2001F0C5FB00210D2001F0C1FB0021D2
:103600000F2001F0BDFB0021102001F0B9FB0721C4
:10361000112001F0B5FB0021122001F0B1FB0021C7
:10362000132001F0ADFB0121072001F0A9FB32209E
:1036300002F0FEF941F29041102001F0A1FB40F2AE
:103640002721112001F09CFB322002F0F1F98A21A0
:10365000122001F095FB322002F0EAF94FF4D0512C
:10366000132001F08DFB0621292001F089FB0D219B
:103670002B2001F085FB322002F0DAF90021202016
:1036800001F07EFB0021212001F07AFB322002F0C4
:10369000CFF90021302000E074E001F071FB40F22E
:1036A0000461312001F06CFB40F20531322001F061
:1036B00067FB0021352001F063FB40F6094136200D
:1036C00001F05EFB4FF40171372001F059FB40F22D
:1036D0000131382001F054FB40F20771392001F02C
:1036E0004FFB00213C2001F04BFB40F60A213D201E
:1036F00001F046FB322002F09BF90021502001F03E
:103700003FFBEF21512001F03BFB0021522001F053
:1037100037FB40F23F11532001F032FB4FF42741B9
:10372000602001F02DFB0121612001F029FB002127
:103730006A2001F025FB0021802001F021FB0021FF
:10374000812001F01DFB0021822001F019FB0021E6
:10375000832001F015FB0021842001F011FB0021E2
:10376000852001F00DFB1021902001F009FB4FF4A2
:10377000C061922001F004FB40F23311072001F0F8
:10378000FFFA24E61148808849F2203188427DD131
:103790000021084601F0F4FA4FF48071012001F095
:1037A000EFFA4FF4E061022001F0EAFA41F2300151
:1037B000032001F0E5FA0021042001F0E1FA40F2D3
:1037C0000221082001F0DCFA002101E0460000207F
:1037D000092001F0D5FA00210A2001F0D1FA0121D7
:1037E0000C2001F0CDFA00210D2001F0C9FA0021D2
:1037F0000F2001F0C5FA322002F01AF940F201114F
:10380000072001F0BDFA322002F012F94FF4865180
:10381000102001F0B5FA0721112001F0B1FA4FF4A0
:103820008871122001F0ACFA4FF43061132001F0DE
:10383000A7FA0021292001F0A3FA44F210012B205D
:1038400001F09EFA0021502001F09AFAEF21512058
:1038500001F096FA0021522001F092FA40F23F1155
:10386000532001F08DFA4FF41C51602001F088FACA
:103870000121612001F084FA00216A2001F080FA20
:103880000021802001F07CFA002100E031E081205D
:1038900001F076FA0021822001F072FA00218320E3
:1038A00001F06EFA0021842001F06AFA00218520DF
:1038B00001F066FA1021902001F062FA00219220B6
:1038C00001F05EFA0121932001F05AFA4FF4887159
:1038D000952001F055FA0021972001F051FA0021BE
:1038E000982001F04DFA40F27311072001F048FAD8
:1038F0006DE5FE48808849F2313188427DD141F240
:103900001401E72001F03CFA4FF48071012001F02E
:1039100037FA4FF40071022001F032FA41F2380117
:10392000032001F02DFA40F20221082001F028FACC
:103930000021092001F024FA00210A2001F020FAD8
:1039400000210C2001F01CFA00210D2001F018FAD2
:1039500000210F2001F014FA0021102001F010FACC
:103960000721112001F00CFA0021122001F008FAC1
:103970000021132001F004FAC82002F059F841F2A6
:103980009061102001F0FCF940F22721112001F094
:10399000F7F9322002F04CF80C21122001F0F0F976
:1039A000322002F045F84FF40061132001F0E8F9ED
:1039B0001121292001F0E4F90B212B2001F0E0F97D
:1039C000322002F035F80021202001F0D9F940F230
:1039D0003F11212001F0D4F90021302001F0D0F96D
:1039E0004FF48371312001F0CBF90021322001F036
:1039F000C7F94FF40171352000E064E001F0C0F92F
:103A000041F20A61362001F0BBF940F2077137201C
:103A100001F0B6F94FF48371382001F0B1F940F2AA
:103A20000771392001F0ACF940F202413C2001F06D
:103A3000A7F940F60F413D2001F0A2F900215020E6
:103A400001F09EF9EF21512001F09AF90021522056
:103A500001F096F940F23F11532001F091F94FF433
:103A60001C51602001F08CF90121612001F088F9DE
:103A700000216A2001F084F90021802001F080F902
:103A80000021812001F07CF90021822001F078F9E9
:103A90000021832001F074F90021842001F070F9E5
:103AA0000021852001F06CF91021902001F068F9C7
:103AB0004FF4C061922001F063F940F23311072006
:103AC00001F05EF983E48948808845F20841884224
:103AD0007ED14FF48071012001F052F94FF4E06182
:103AE000022001F04DF941F23001032001F048F9C4
:103AF0000021042001F044F940F20721082001F0E0
:103B00003FF90021092001F03BF900210A2001F0D2
:103B100037F900210C2001F033F900210D2001F0CC
:103B20002FF900210F2001F02BF9142001F080FF64
:103B300041F2B061102001F023F90121112001F0C0
:103B40001FF90121172001F01BF94FF49C7112207D
:103B500001F016F94FF40061132001F011F9092169
:103B6000292001F00DF909212A2001F009F900218D
:103B7000A42001F005F90021502001F001F9EF2106
:103B8000512001F0FDF80021522001F0F9F840F237
:103B90003F11532001F0F4F84FF41C51602001F064
:103BA000EFF80121612001F0EBF800216A2001F01B
:103BB000E7F80021802001F0E3F80021812001F0E6
:103BC000DFF80021822001F0DBF80021832000E0F3
:103BD00023E001F0D5F80021842001F0D1F8002184
:103BE000852001F0CDF81321902001F0C9F80021C3
:103BF000922001F0C5F80321932001F0C1F84FF4A1
:103C00008871952001F0BCF840F27311072001F093
:103C1000B7F8322001F00CFFB8E43448808841F254
:103C2000055188427ED10021072001F0A9F83220F9
:103C300001F0FEFE4FF48E71122001F0A1F8012177
:103C4000A42001F09DF80F21082001F099F8082127
:103C50000A2001F095F808210D2001F091F840F2BA
:103C60000771302001F08CF80721312001F088F82D
:103C700040F20361322001F083F84FF4E061332019
:103C800001F07EF840F20221342001F079F802219F
:103C9000352001F075F841F60F71362001F070F80B
:103CA00040F20771372001F06BF80021382001F055
:103CB00067F80021392001F063F840F207713A20DB
:103CC00001F05EF800213B2001F05AF807213C206A
:103CD00001F056F800213D2001F052F8322001F0A9
:103CE000A7FE0121072001F04BF801E0460000206B
:103CF0000121172001F044F8322001F099FE4FF421
:103D0000BD51102001F03CF840F21721112001F0C4
:103D100037F84FF48F71122001F032F84FF47061D0
:103D2000132000E097E001F02BF800212A2001F099
:103D300027F80A21292001F023F84FF49F7112205F
:103D400001F01EF80021502001F01AF8EF21512057
:103D500001F016F80021522001F012F840F23F1154
:103D6000532001F00DF84FF41C51602001F008F8C9
:103D70000121612001F004F800216A2001F000F81F
:103D80000021802000F0FCFF0021812000F0F8FFDE
:103D90000021822000F0F4FF0021832000F0F0FFDA
:103DA0000021842000F0ECFF0021852000F0E8FFD6
:103DB0001321902000F0E4FF4FF44071922000F0B6
:103DC000DFFF0521932000F0DBFF0021952000F0AC
:103DD000D7FF0021972000F0D3FF0021982000F0AA
:103DE000CFFF4FF48071012000F0CAFF4FF4E06173
:103DF000022000F0C5FF41F23801032000F0C0FFAF
:103E00000021042000F0BCFF00210C2000F0B8FFCE
:103E100000210F2000F0B4FF0021202000F0B0FFAF
:103E20000021212000F0ACFF2121072000F0A8FF95
:103E3000142001F0FDFD6121072000F0A1FF1420F6
:103E400001F0F6FD40F27311072000F099FF1420F5
:103E500001F0EEFD95E4FE4880884BF20551884262
:103E60007ED10021084600F08BFF0021084600F0BB
:103E700087FF0021084600F083FF0021084600F07C
:103E80007FFF0121A42000F07BFF142001F0D0FD72
:103E90004FF41C51602000F073FF40F20221082013
:103EA00000F06EFF4FF40571302000F069FF43F21F
:103EB0001571312000F064FF40F20461322000F0FF
:103EC0005FFF40F61661332000F05AFF42F21121E5
:103ED000342000F055FF4FF4A851352000F050FF7A
:103EE00048F20751362000F04BFF41F207413720DE
:103EF00000F046FF41F20341382000F041FF20214D
:103F0000392000F03DFF1A21902000F039FF0021F8
:103F1000102000F035FF0721112000F031FF0021B3
:103F2000122000F02DFF0021132000F029FF1420A3
:103F300001F07EFD4FF4E661102000F021FF40F219
:103F40003711112000F01CFF142001F071FD4FF417
:103F5000DC71122000F014FF142001F069FD00E074
:103F600083E04FF47061132000F00AFF80212A20C3
:103F700000F006FF4821292000F002FF142001F084
:103F800057FD4FF48071012000F0FAFE4FF4E0611C
:103F9000022000F0F5FE41F23801032000F0F0FEAF
:103FA00040F20221082000F0EBFE00210A2000F080
:103FB000E7FE00210C2000F0E3FE00210D2000F0C0
:103FC000DFFE30210E2000F0DBFE0021502000F04B
:103FD000D7FEEF21512000F0D3FE0021522000F047
:103FE000CFFE40F23F11532000F0CAFE4FF41C51A7
:103FF000602000F0C5FE0121612000F0C1FE00211B
:104000006A2000F0BDFE1121902000F0B9FE4FF4AF
:10401000C061922000F0B4FE40F20241932000F013
:10402000AFFE0221942000F0ABFE142001F000FD51
:104030000121072000F0A4FE142001F0F9FC612109
:10404000072000F09DFE40F27311072000F098FE5B
:104050000021202000F094FE0021212000F090FE9D
:104060002221002000F08CFE11E3794880884CF278
:10407000055188427ED10021084600F081FE0021D2
:10408000084600F07DFE142001F0D2FC0021084615
:1040900000F076FE0021084600F072FE002108467E
:1040A00000F06EFE0021084600F06AFE0121A42007
:1040B00000F066FE142001F0BBFC4FF41C516020A0
:1040C00000F05EFE40F60601082000F059FE40F2C6
:1040D0000371302000F054FE0121312000F050FE29
:1040E0000421322000F04CFE4FF48171332000F0A7
:1040F00047FE4FF44071342000F042FE40F20311BD
:10410000352000F03DFE1F21362000F039FE40F240
:104110000371372000F034FE0121382000F030FE1A
:104120000421392000F02CFE1521902000F028FEFB
:104130004FF48261102000F023FE40F2472111204D
:1041400000F01EFE4FF4DE71122000F019FE4FF455
:104150006061132000F014FE782001F069FC4FF438
:104160008071012000F00CFE4FF40071022000F07D
:1041700007FE00E050E041F23001032000F000FEB5
:1041800008210A2000F0FCFD00210C2000F0F8FDC1
:1041900020210E2000F0F4FD00210F2000F0F0FDA2
:1041A0000021202000F0ECFD0021212000F0E8FD9E
:1041B0003D212A2000F0E4FD142001F039FC2D21DE
:1041C000292000F0DDFD0021502000F0D9FD4DF246
:1041D000EF01512000F0D4FD0021522000F0D0FD6D
:1041E00040F23F11532000F0CBFD0021612000F090
:1041F000C7FD00216A2000F0C3FD4FF440719220FA
:1042000000F0BEFD0521932000F0BAFD4FF480714F
:10421000072000F0B5FD3AE20D48808844F23151A4
:1042200088427CD10121002000F0AAFD0A2001F083
:10423000FFFB41F22861102000F0A2FD0E211220A8
:1042400000F09EFD40F63921132000F099FD01E0B9
:10425000460000200A2001F0EBFB4021112000F075
:104260008FFD5021152000F08BFD0A2001F0E0FBAE
:104270001E21122000F084FD0A2001F0D9FB4FF42A
:10428000B151102000F07CFD42F63921132000F0DE
:1042900077FD0A2001F0CCFB4FF48071012000F083
:1042A0006FFD4FF44071022000F06AFD41F23801C9
:1042B000032000F065FD40F20221082000F060FDBF
:1042C00008210A2000F05CFD0021302000F058FD9C
:1042D00040F20241312000F053FD4FF4837132204F
:1042E00000F04EFD40F20351332000F049FD4FF441
:1042F0008271342000F044FD40F20131352000F09D
:104300003FFD40F20771362000F03AFD40F20531E2
:10431000372000F035FD4FF40271382000E040E016
:1043200000F02EFD40F60B71392000F029FD02212E
:10433000412000F025FD4FF41C51602000F020FDCD
:104340000121612000F01CFD4FF40471902000F069
:1043500017FD4FF48571922000F012FD0421932087
:1043600000F00EFD4FF48071A02000F009FD012146
:10437000072000F005FD2121072000F001FD232189
:10438000072000F0FDFC3321072000F0F9FC40F28B
:104390003311072000F0F4FC0021A02000F0F0FC15
:1043A00075E1C148808844F2355188427ED1302180
:1043B000152000F0E5FC10219A2000F0E1FC2021FE
:1043C000112000F0DDFC43F22841102000F0D8FC61
:1043D0000221122000F0D4FC41F23801132000F039
:1043E000CFFC282001F024FB1221084600F0C8FC75
:1043F000282001F01DFB43F22041102000F0C0FCFA
:1044000043F23801132000F0BBFC462001F010FB02
:104410000021302000F0B4FC40F20241312000F0D5
:10442000AFFC40F20731322000F0AAFC4FF441719A
:10443000332000F0A5FC0421342000F0A1FC40F260
:104440000141352000F09CFC40F20771362000F05D
:1044500097FC40F20531372000F092FC4FF4C26126
:10446000382000F08DFC4FF4C261392000F088FC48
:104470004FF48071012000F083FC4FF44071022062
:1044800000F07EFC41F23001032000F079FC40F6A0
:104490000801082000F074FC08210A2000F070FCDC
:1044A0004FF41C51602000F06BFC00E031E0012172
:1044B000612000F065FC4FF49F71902000F060FCDB
:1044C0004FF48071922000F05BFC4FF480719320D8
:1044D00000F056FC4FF44051A02000F051FC102198
:1044E000A32000F04DFC0121072000F049FC212110
:1044F000072000F045FC2321072000F041FC332178
:10450000072000F03DFC40F23311072000F038FC9A
:10451000BDE06548808841F663118842F8D1E22009
:1045200000F01EFC1D2000F015FC022000F012FC23
:10453000042000F00FFC642001F0A0FAE02000F05D
:104540000FFC012000F006FC0A2001F071FAE020C7
:1045500000F006FC032000F0FDFB0C2001F068FADF
:10456000012000F0FDFB0A2001F062FAE62000F0D5
:10457000F7FB2F2000F0EEFBFF2000F0EBFBFF200D
:1045800000F0E8FBB02000F0EBFB202000F0E2FBA5
:10459000002000F0DFFB032000F0DCFB40F21F30C6
:1045A00000F0D8FB012000F0D5FB40F2DF1000F056
:1045B000D1FB002000F0CEFBB42000F0D1FB0420A2
:1045C00000F0C8FB40F21F4000F0C4FB002000F0E8
:1045D000C1FB2E2000F0BEFB002000F0BBFB002042
:1045E00000F0B8FB002000F0B5FB002000F0B2FBAB
:1045F000B62000F0B5FB022000F0ACFB4FF40370D6
:1046000000F0A8FB002000F0A5FB172000F0A2FBA3
:10461000152000F09FFB002000F09CFB002000F024
:1046200099FBF02000F09CFB032000F093FB292075
:1046300000F096FBD02000F093FB002000F08AFBF6
:10464000BE2000F08DFB052000F084FBFE2000F072
:1046500081FB012000F07EFB002000F07BFB0020AE
:1046600000F078FB002000F075FBB82000F078FB2C
:10467000032000F06FFB012000F06CFBBA2000F07B
:104680006FFB012000F066FB642000F027F800209B
:10469000FCF7B6FA0120054908604FF6FF70FCF7F9
:1046A00079FA1FB000BD0000460000208081214241
:1046B00008B5034800880090BDF8000008BD000060
:1046C0000008006C10B50446204600F049FB0520A8
:1046D00001F0D4F9FFF7ECFF10BD00002DE9F04721
:1046E0000446BE2000F03CFB052000F033FB2046D2
:1046F00001F011FC07464FF066320C4B01F01EFC36
:10470000054601F0DBFB1FFA80F9484600F022FB6A
:10471000012000F01FFBFF2000F01CFB002000F038
:1047200019FB002000F016FBBDE8F0876666044028
:1047300070B5044600230026B748807901280BD1C4
:10474000B548808846F60401884205D0B248808882
:1047500041F66311884208D1AF488079F0B9AE487C
:10476000808841F66311884218D1082C15D2DFE801
:1047700004F00406080A0C0E101206240DE00724AB
:104780000BE0042409E0052407E0012405E00024EF
:1047900003E0032401E0022400BF00BF9E4880889C
:1047A00049F24131884217D09B48808846F604017F
:1047B000884211D09848808845F2103188420BD049
:1047C0009548808845F21051884205D092488088EB
:1047D00041F6631188427DD1082C1CD2DFE804F039
:1047E0000406090C0F12151800BF14E043F08003F3
:1047F00011E043F040030EE043F0C0030BE043F050
:10480000200308E043F0600305E043F0A00302E06A
:1048100043F0E00300BF00BF7F48808845F210519D
:10482000884202D14FF4585600E036267A488088F4
:1048300045F2103188420DD07748808845F21051FA
:10484000884207D07448808841F66311884201D0BD
:1048500043F008037048808846F60401884201D17D
:1048600043F002031946304600F08AFA6A4880880D
:1048700041F6631188421DD003F0200068B16648FC
:10488000008865494988884214DA63480588408869
:1048900061490880084645800CE05F4800885E4911
:1048A0004988884206DD5C48058840885A49088066
:1048B000084645805848808845F21051884254D1B6
:1048C0005549488900F04CFA002000F043FA52495B
:1048D000498900E078E0491C88B200F041FA0020E4
:1048E00000F038FA4C494989891C88B200F038FA3E
:1048F00049490988491EC1F30F2000F02BFA4649A7
:104900004989C91C88B200F02BFA43490978491E2D
:10491000C8B200F01FFA4049888900F021FA00204F
:1049200000F018FA3C498989491C88B200F018FA4D
:10493000002000F00FFA38498989891C88B200F0FC
:104940000FFA35494988491EC1F30F2000F002FAD9
:1049500031498989C91C88B200F002FA2E49897848
:10496000491EC8B200F0F6F955E02B49488900F01D
:10497000F7F9002000F0EEF9002000F0EBF92649ED
:104980000988491EC1F30F2000F0E4F92249097893
:10499000491EC8B200F0DEF91F49888900F0E0F92D
:1049A000002000F0D7F9002000F0D4F91A49498816
:1049B000491EC1F30F2000F0CDF917498978491E2F
:1049C000C8B200F0C7F926E0082C1CD2DFE804F0DA
:1049D00004070A0D0F12151843F0300313E043F0DB
:1049E000100310E043F020030DE000BF0BE043F0A4
:1049F000380308E043F0280305E043F0180302E021
:104A000043F0080300BF00BF032643F48053194658
:104A1000304600F0B5F970BD4600002010B50346E1
:104A20000C466748808849F24131884205D0644885
:104A3000808845F21031884214D16149488900F0DC
:104A40008FF9181200F086F9D8B200F083F95C49AA
:104A5000888900F085F9201200F07CF9E0B200F0BE
:104A600079F9ABE05648808846F6040188421DD1AA
:104A700053488079012804D151480088401EC01A4B
:104A800083B24F49488900F06BF9181200F062F9BF
:104A9000D8B200F05FF94A49888900F061F9201224
:104AA00000F058F9E0B200F055F987E044488088FA
:104AB00041F66311884247D141488079A8B94048FE
:104AC0000088401EC01A83B23D49488900F048F969
:104AD000002000F03FF9002000F03CF9181200F02F
:104AE00039F9D8B200F036F916E03549488900F0B6
:104AF00037F9181200F02EF9D8B200F02BF930492E
:104B00000988491EC1F30F2000F024F92C490978C7
:104B1000491EC8B200F01EF92949888900F020F921
:104B2000201200F017F9E0B200F014F92449498886
:104B3000491EC1F30F2000F00DF921498978491E63
:104B4000C8B200F007F939E01D48808845F21051DD
:104B5000884220D11A49488900F002F9181200F061
:104B6000F9F817494989491C88B200F0F9F8D8B218
:104B700000F0F0F81249888900F0F2F8201200F0F5
:104B8000E9F80F498989491C88B200F0E9F8E0B2D8
:104B900000F0E0F812E00A488079012804D10848C2
:104BA0000088401EC01A83B205494889194600F0A2
:104BB000E7F803498889214600F0E2F810BD0000BB
:104BC000460000202DE9F84F80460E4617461C4649
:104BD000B3462046E31704EB5373DB1021464FEA3C
:104BE000E47C04EB5C7C4FEAEC0CA4EBCC0CBCF159
:104BF000000F02D04FF0010C01E04FF0000C6344B5
:104C0000224604EBD27C4FEA6C0C03FB0CF3DBB2C4
:104C10000093A7F12000C7B2002556E00C2C07D165
:104C200007EB47002B4901EB800010F8059013E0DB
:104C3000102C05D1284800EB071010F805900BE068
:104C4000182C07D107EBC700244901EB800010F8AE
:104C5000059001E0BDE8F88F4FF0000A2FE009F061
:104C6000800030B11E48028831464046FCF7A8F863
:104C700007E00A9828B91B48028831464046FCF7ED
:104C80009FF84FEA49604FEA1069701C86B21648D7
:104C90004088B04200DCDDE7A6EB0B00A0420AD161
:104CA0005E4608F101001FFA80F80F480088404571
:104CB00000DCCFE706E00AF1010000F0FF0ABAF1DC
:104CC000080FCCDB00BF681CC5B200988542A5DB8D
:104CD00000BFBFE750610008C4650008B46B00085E
:104CE0001600002018000020460000202DE9F8479B
:104CF00004460D4690469946DDE9096704F0FF0A2F
:104D000008EB04001FFA80F809EB05001FFA80F990
:104D100016E0444502DB5446A81985B24D4500DB38
:104D200014E0002000903A78334629462046FFF7E9
:104D300049FF304606EBD07104EB61018CB27F1C59
:104D400038787E2802DC38782028E2DA00BFBDE817
:104D5000F887000001490880704700000008006CD7
:104D60000149088070470000FE07006C0248008976
:104D7000024908807047000046000020FE07006CD2
:104D8000024A1080921C118070470000FE07006CE0
:104D900070B5002100230F22C47804B3154C246899
:104DA00004F4E064C4F5E064210AC1F10403CA40DC
:104DB000447804FA03F184781440214309010E4C2D
:104DC0000678A155047804F01F050124AC4005784D
:104DD0006D11AD0005F1E025C5F8004109E004784A
:104DE00004F01F050124AC40044D0678761145F807
:104DF000264070BD0CED00E000E400E080E100E042
:104E0000014908627047000000000E4229B1064ABD
:104E100052690243044B5A6104E0034A52698243D7
:104E2000014B5A61704700000010024029B1064A48
:104E3000D2690243044BDA6104E0034AD269824337
:104E4000014BDA61704700000010024029B1064AA8
:104E500092690243044B9A6104E0034A92698243D7
:104E6000014B9A6170470000001002400149086040
:104E7000704700004004424230B500210022002467
:104E800000232D4D6D6805F00C0121B1042905D0DA
:104E9000082923D105E0294D056022E0274D056052
:104EA0001FE0254D6D6805F47012234D6D6805F403
:104EB0008034022505EB92421CB9214D5543056013
:104EC0000BE01D4D6D6805F400351DB11C4D5543BB
:104ED000056002E0194D5543056002E0174D05607D
:104EE00000BF00BF144D6D6805F0F0010909154DB4
:104EF0006B5C0568DD4045600F4D6D6805F4E06151
:104F0000090A104D6B5C4568DD4085600A4D6D688F
:104F100005F46051C90A0B4D6B5C4568DD40C56006
:104F2000054D6D6805F44041890B074D6B5CC56804
:104F3000B5FBF3F5056130BD0010024000127A00A8
:104F400000093D00000000201000002010B50146BF
:104F50000022002300204A11012A02D1094C2368B3
:104F600006E0022A02D1074C236A01E0054C636A7D
:104F700001F01F02012494401C400CB1012000E00C
:104F8000002010BD0010024000210B4A11700A4A97
:104F9000203A82F82010012802D0042808D103E02A
:104FA0000121054A117004E00521034A117000E057
:104FB00000BF00BF70470000201002400149086098
:104FC000704700003C0442420249096A0143014A19
:104FD0001162704700100240024909888143014A6A
:104FE00011807047042800400348008840F01000FA
:104FF00001490880704700000428004003480088E9
:105000004FF6EF71084001490880704704280040BE
:1050100070B500260024002500F07AF806463848CE
:10502000B6FBF0F437480088A0423CD035490C80EC
:1050300040F2B27510E02846FBF78FFD40B1B4F5A1
:10504000B77F02D3A4F5B77404E0681C85B206E00C
:10505000A4F26D14681C85B2B4F5B67FEBD800BF1E
:1050600029488580002516E027498888FBF775FDCB
:1050700030B1012D04D11D2C01D31D3C09E00CE001
:105080002248405DA04203D82048405D241A00E039
:1050900003E0681C85B21C2CE6D200BF681C1A49CC
:1050A0008871601CC8711648B6FBF0F100FB1164F2
:1050B0004FF46160B4FBF0F0134908704FF4616085
:1050C000B4FBF0F100FB11403C21B0FBF1F00E49C4
:1050D00048704FF46160B4FBF0F100FB11403C21DB
:1050E000B0FBF1F201FB1200074988700B46DA7938
:1050F0009979988800F028F803490872002070BD5B
:1051000080510100140000203C0000204461000890
:10511000002103480188001F008841EA00407047D1
:105120001C28004001460020064A12880A40D0B2DE
:10513000044A121F12880A4012B108B1012000E08F
:105140000020704704280040F0B503460C46154681
:10515000642093FBF0F0C6B2642093FBF0F700FBF1
:105160001730C1B2132E02DD01F16400C1B208464E
:10517000CF1701EB977701EBA707BAB2072092FB95
:10518000F0F700FB172082B25719601EDFF82CC021
:105190001CF80000384482B2CF1701EB9777BF109C
:1051A000A1EB87071FB9032C01DA501E82B207203A
:1051B00092FBF0F700FB1720C0B2F0BD3861000889
:1051C0000EB50120FFF7AEFF08B1FFF721FF022067
:1051D000FFF7A8FFA0B10220FFF7FEFEFFF718FFC0
:1051E0000A48807809494978084A1278CDE90021AF
:1051F00002900648C3798279818805A0FAF7EEFF0C
:105200000520FFF7E9FE00F017F90EBD3C00002075
:10521000416C61726D2054696D653A25642D256479
:105220002D25642025643A25643A25640A0000008F
:1052300029B1064A12880243044B1A8004E0034A4B
:1052400012888243014B1A807047000000280040FA
:105250001CB5002401214FF0C050FFF7E7FD0120ED
:10526000FFF7CEFD0420FBF755FA45F250018842C6
:1052700040D0FBF747FA0120FFF786FE04E0601CF0
:10528000C4B20A2000F0D4FB4120FFF75FFE08B94A
:10529000FA2CF4DBFA2C01DB01201CBD4FF48070EA
:1052A000FFF792FE0120FFF789FE00F0C5F800F03D
:1052B000CDF801210846FFF7BBFF00F0BDF8FFF76E
:1052C00093FE47F6FF7000F0A7F800F0B5F8002055
:1052D0000F2111230D22CDE90010072140F2E470C7
:1052E00000F028F8FFF78AFE45F250010420FBF792
:1052F0001FFA07E000F0AAF801210846FFF798FF1F
:1053000000F09AF800F004F8FFF782FE0020C4E7EE
:1053100008B503208DF8000002208DF80100002060
:105320008DF8020001208DF803006846FFF730FD7C
:1053300008BD00002DE9F05F06460F4690469946ED
:10534000DDE90AAB002440F2B270864203DB40F68E
:105350003300864202DD0120BDE8F09F40F2B275C5
:105360000AE02846FBF7F9FB10B12048044401E0AD
:105370001F480444681C85B2B542F2DB781EC7B2F0
:10538000002510E01B48405D40F2A321484304EB98
:10539000C0143046FBF7E1FB18B1012D01D11648CE
:1053A0000444681C85B2BD42ECDBA8F1010040F268
:1053B000A321484304EBC014C9EB4910C0EB0920FA
:1053C00004EB0014CAEB0A1004EB80045C440121D6
:1053D0004FF0C050FFF72AFD0120FFF711FD2046D6
:1053E00000F00CF800F028F80020B5E70085E20195
:1053F0008033E101446100088051010000B502469C
:10540000FFF7F2FD100C03490880091D0A80FFF721
:10541000F5FD00BD1828004000B50246FFF7E4FD89
:10542000C2F3034003490880091D0A80FFF7E6FD27
:1054300000BD00000828004000BF0348008800F0BD
:1054400020000028F9D07047042800400748008851
:105450004FF6F77108400549088000BF03480088EF
:1054600000F008000028F9D0704700000428004030
:1054700010B500F001F810BD0CB5002001900090AF
:105480003348006840F480303149086000BF30483C
:10549000006800F4003000900198401C01900098D2
:1054A00018B90198B0F5A06FF1D12948006800F44F
:1054B000003010B10120009001E000200090009821
:1054C000012843D12348006840F0100021490860BA
:1054D0000846006820F0030008600846006840F0B5
:1054E000020008601A484068194948600846406848
:1054F00048600846406840F480604860084640685C
:1055000020F47C1048600846406840F4E810486089
:105510000846006840F08070086000BF0C480068D2
:1055200000F000700028F9D00948406820F003001E
:10553000074948600846406840F00200486000BFE4
:105540000348406800F00C000828F9D10CBD0000A9
:105550000010024000200240042808D14FF0E02152
:10556000096941F004014FF0E022116107E04FF0BA
:10557000E021096921F004014FF0E0221161704738
:1055800010B51348006840F0010011490860084652
:105590004068104908400E494860084600680E49B6
:1055A00008400B4908600846006820F48020086025
:1055B0000846406820F4FE0048604FF41F008860F1
:1055C000FFF756FF4FF000600449086010BD00006F
:1055D000001002400000FFF8FFFFF6FE08ED00E0BB
:1055E00010B540F225511D4800F0E4F810B31B48F7
:1055F00000F09CF9C4B21A48008800F40040C8B911
:105600001748008800F4804060B10A2C03D00020C5
:105610001349088020E01248008840F400401049F7
:10562000088019E00D2C06D10D48008840F4804018
:105630000B49088010E00A480088C0F30D000949B2
:105640000C5407480088401C05490880084600881B
:10565000C72801DD0020088010BD0000003801408F
:10566000240000205402002010B540F225511D48AE
:1056700000F0A0F810B31B4800F058F9C4B21A4863
:10568000008800F40040C8B91748008800F4804042
:1056900060B17D2C03D000201349088021E012481E
:1056A000008840F40040104908801AE07D2C06D1A3
:1056B0000D48008840F480400B49088011E00A48FA
:1056C0000088C0F30D0009490C5407480088401CAD
:1056D0000549088008460088B0F5806F01DB00208E
:1056E000088010BD004400401A0000205400002033
:1056F00000B587B001210420FFF7A8FB0121480471
:10570000FFF794FB18208DF81B000420ADF818005B
:1057100003208DF81A0006A91E48FBF78AF9042019
:105720008DF81B000820ADF8180003208DF81A0032
:1057300006A91848FBF77DF94FF4E13002900020EC
:10574000ADF80C00ADF80E00ADF81000ADF8140087
:105750000C20ADF8120002A90F4800F07BF80121DF
:105760000D4800F01BF8012240F225510A4800F0D4
:105770004BF826208DF8040001208DF8070000204A
:105780008DF805008DF8060001A8FFF701FB07B0B2
:1057900000BD0000000801400044004021B18289A2
:1057A00042F40052828104E082894DF6FF731A4070
:1057B0008281704770B50246002400230025002036
:1057C00040F66A16B14200D100BFC1F3421501F0A4
:1057D0001F03012606FA03F3012D02D196893340F7
:1057E00006E0022D02D1168A334001E0968A33404A
:1057F0000C12012606FA04F41688344013B10CB1D9
:10580000012000E0002070BDF0B503460024002612
:105810000025002040F66A17B94200D100BF1846A3
:10582000C1F3421401F01F06012707FA06F5012C07
:1058300001D10C3004E0022C01D1103000E0143012
:105840001AB107682F43076002E00768AF4307609B
:10585000F0BD00002DE9F04786B005460E46002455
:10586000A24600BFA1460027B08900B100BF2F4665
:105870002C8A4CF6FF700440F08804432C82AC89DB
:105880004EF6F3100440B08831890843718908430B
:105890000443AC81AC8A4FF6FF400440B089044316
:1058A000AC8201A8FFF7E8FA1F48874202D1DDF871
:1058B00010A001E0DDF80CA0A88900F4004040B180
:1058C0000AEBCA0000EB0A1031684900B0FBF1F89E
:1058D00007E00AEBCA0000EB0A1031688900B0FB50
:1058E000F1F86420B8FBF0F004012009642101FB09
:1058F0001089A88900F4004040B1322000EBC900B3
:10590000B0FBF1F000F00700044308E0322000EBA8
:1059100009106421B0FBF1F000F00F0004432C816A
:1059200006B0BDE8F08700000038014001468888D5
:10593000C0F30800704730380A2801D201207047B0
:1059400000207047014600BF704700001CB50446A8
:1059500024B1012C0DD0022C21D115E011A00C2175
:105960000B46F022CDE90010B4212620FFF7BEF946
:1059700015E013A00C210B46F022CDE90010B42154
:105980003820FFF7B3F90AE013A00C210B46F022F0
:10599000CDE90010B4214620FFF7A8F900BF00BFF1
:1059A0001CBD00002020202020202020202020209E
:1059B0002020202020202020202020202020200007
:1059C00020202020202020202020202020202020D7
:1059D0002020202020000000202020202020202027
:1059E00020202020202020200000000010B56FF093
:1059F0000400FFF7B1FD0A4800680A49B0FBF1F066
:105A0000094908700846007800EB4001C1EBC0105E
:105A10004FF6FF7101EAC0000449088010BD000084
:105A20002800002000127A001C0000201E00002028
:105A30000146114A12884A434FF0E0235A6100227E
:105A40009A611A46126942F001021A6100BF4FF0D2
:105A5000E022106900F001021AB100F48032002A3D
:105A6000F5D04FF0E022126922F001024FF0E0235E
:105A70001A6100229A6170471E0000200146114AF7
:105A800012784A434FF0E0235A6100229A611A4685
:105A9000126942F001021A6100BF4FF0E022106962
:105AA00000F001021AB100F48032002AF5D04FF064
:105AB000E022126922F001024FF0E0231A61002275
:105AC0009A6170471C00002000BF054A128802F04E
:105AD0004002002AF9D0C2B2014B1B1D1A80704748
